:03000000020003F8
:0C000300787FE4F6D8FD75810902004A00
:10014600FEFDFBF7EFDFBF7F7FBFDFEFF7FBFDFEB7
:0601650001080001090081
:0900B800E50893F5907F647E00D9
:1000C100D3EF9400EE940040147D6E7C00ED1D7022
:0D00D100011CED4C70F7EF1F70E61E80E380
:0100DE0022FF
:10012D0020B20375090120B30375090220B40375CC
:09013D00090320B5037509042231
:1000DF0030B32330B42030B51DE4F508C3E50894E0
:1000EF000874809480500A9001461200B805088069
:0700FF00EBE4F50880DA22B2
:1001060030B22330B32030B51DE4F508C3E50894BA
:100116000874809480500A90014E1200B805088039
:07012600EBE4F50880DA228A
:0F01560030B20B30B40830B5057590FF80F2223F
:10008F0012012DE509640170031200DFE509640216
:10009F007003120156E50964037003120106E509A6
:0900AF00640470DC1200DF80D74C
:10000F0002008FE493A3F8E493A34003F68001F278
:10001F0008DFF48029E493A3F85407240CC8C333F2
:10002F00C4540F4420C8834004F456800146F6DFC1
:10003F00E4800B0102040810204080900165E47EEB
:10004F00019360BCA3FF543F30E509541FFEE493B6
:10005F00A360010ECF54C025E060A840B8E493A37D
:10006F00FAE493A3F8E493A3C8C582C8CAC583CAA8
:10007F00F0A3C8C582C8CAC583CADFE9DEE780BE60
:01016B000093
:00000001FF
